{
  "_format": "hh-sol-artifact-1",
  "contractName": "Staker",
  "sourceName": "contracts/Staker.sol",
  "abi": [
    {
      "inputs": [
        {
          "internalType": "address",
          "name": "exampleExternalContractAddress",
          "type": "address"
        }
      ],
      "stateMutability": "nonpayable",
      "type": "constructor"
    },
    {
      "anonymous": false,
      "inputs": [
        {
          "indexed": false,
          "internalType": "address",
          "name": "sender",
          "type": "address"
        },
        {
          "indexed": false,
          "internalType": "uint256",
          "name": "value",
          "type": "uint256"
        }
      ],
      "name": "Stake",
      "type": "event"
    },
    {
      "inputs": [
        {
          "internalType": "address",
          "name": "",
          "type": "address"
        }
      ],
      "name": "balances",
      "outputs": [
        {
          "internalType": "uint256",
          "name": "",
          "type": "uint256"
        }
      ],
      "stateMutability": "view",
      "type": "function"
    },
    {
      "inputs": [],
      "name": "deadline",
      "outputs": [
        {
          "internalType": "uint256",
          "name": "",
          "type": "uint256"
        }
      ],
      "stateMutability": "view",
      "type": "function"
    },
    {
      "inputs": [],
      "name": "exampleExternalContract",
      "outputs": [
        {
          "internalType": "contract ExampleExternalContract",
          "name": "",
          "type": "address"
        }
      ],
      "stateMutability": "view",
      "type": "function"
    },
    {
      "inputs": [],
      "name": "execute",
      "outputs": [],
      "stateMutability": "nonpayable",
      "type": "function"
    },
    {
      "inputs": [],
      "name": "executed",
      "outputs": [
        {
          "internalType": "bool",
          "name": "",
          "type": "bool"
        }
      ],
      "stateMutability": "view",
      "type": "function"
    },
    {
      "inputs": [],
      "name": "openForWithdraw",
      "outputs": [
        {
          "internalType": "bool",
          "name": "",
          "type": "bool"
        }
      ],
      "stateMutability": "view",
      "type": "function"
    },
    {
      "inputs": [],
      "name": "stake",
      "outputs": [],
      "stateMutability": "payable",
      "type": "function"
    },
    {
      "inputs": [],
      "name": "threshold",
      "outputs": [
        {
          "internalType": "uint256",
          "name": "",
          "type": "uint256"
        }
      ],
      "stateMutability": "view",
      "type": "function"
    },
    {
      "inputs": [],
      "name": "timeLeft",
      "outputs": [
        {
          "internalType": "uint256",
          "name": "",
          "type": "uint256"
        }
      ],
      "stateMutability": "view",
      "type": "function"
    },
    {
      "inputs": [],
      "name": "withdraw",
      "outputs": [],
      "stateMutability": "nonpayable",
      "type": "function"
    },
    {
      "stateMutability": "payable",
      "type": "receive"
    }
  ],
  "bytecode": "0x6080604052610011426203f480610092565b60025534801561002057600080fd5b5060405161098638038061098683398101604081905261003f91610064565b600080546001600160a01b0319166001600160a01b03929092169190911790556100b6565b600060208284031215610075578081fd5b81516001600160a01b038116811461008b578182fd5b9392505050565b600082198211156100b157634e487b7160e01b81526011600452602481fd5b500190565b6108c1806100c56000396000f3fe6080604052600436106100955760003560e01c80633ccfd60b116100595780633ccfd60b1461014b57806342cde4e814610160578063614619541461017c5780639876a643146101915780639f75f227146101ab57600080fd5b80631300a6d1146100a957806327e235e3146100d157806329dcb0cf146100fe57806331a38c89146101145780633a4b66f11461014357600080fd5b366100a4576100a26101e3565b005b600080fd5b3480156100b557600080fd5b506100be610376565b6040519081526020015b60405180910390f35b3480156100dd57600080fd5b506100be6100ec366004610775565b60016020526000908152604090205481565b34801561010a57600080fd5b506100be60025481565b34801561012057600080fd5b5060035461013390610100900460ff1681565b60405190151581526020016100c8565b6100a26101e3565b34801561015757600080fd5b506100a261039a565b34801561016c57600080fd5b506100be670de0b6b3a764000081565b34801561018857600080fd5b506100a2610642565b34801561019d57600080fd5b506003546101339060ff1681565b3480156101b757600080fd5b506000546101cb906001600160a01b031681565b6040516001600160a01b0390911681526020016100c8565b6000806101ee610376565b9050811561024e5780156102495760405162461bcd60e51b815260206004820181905260248201527f446561646c696e6520686173206e6f74206265656e207061737365642079657460448201526064015b60405180910390fd5b61026e565b6000811161026e5760405162461bcd60e51b8152600401610240906107c3565b60008060009054906101000a90046001600160a01b03166001600160a01b0316639d9a7fe96040518163ffffffff1660e01b815260040160206040518083038186803b1580156102bd57600080fd5b505afa1580156102d1573d6000803e3d6000fd5b505050506040513d601f19601f820116820180604052508101906102f591906107a3565b905080156103155760405162461bcd60e51b81526004016102409061080f565b3360009081526001602052604081208054349290610334908490610846565b9091555050604080513381523460208201527febedb8b3c678666e7f36970bc8f57abf6d8fa2e828c0da91ea5b75bf68ed101a910160405180910390a1505050565b600060025442106103875750600090565b42600254610395919061085e565b905090565b600160006103a6610376565b905081156104015780156103fc5760405162461bcd60e51b815260206004820181905260248201527f446561646c696e6520686173206e6f74206265656e20706173736564207965746044820152606401610240565b610421565b600081116104215760405162461bcd60e51b8152600401610240906107c3565b60008060009054906101000a90046001600160a01b03166001600160a01b0316639d9a7fe96040518163ffffffff1660e01b815260040160206040518083038186803b15801561047057600080fd5b505afa158015610484573d6000803e3d6000fd5b505050506040513d601f19601f820116820180604052508101906104a891906107a3565b905080156104c85760405162461bcd60e51b81526004016102409061080f565b60035460ff1661052b5760405162461bcd60e51b815260206004820152602860248201527f43616e27742077697468647261772079657421205761697420666f722074696d60448201526719481d1bc8195b9960c21b6064820152608401610240565b33600090815260016020526040902054806105815760405162461bcd60e51b815260206004820152601660248201527505468652075736572732062616c616e636520697320360541b6044820152606401610240565b336000818152600160205260408082208290555190919083908381818185875af1925050503d80600081146105d2576040519150601f19603f3d011682016040523d82523d6000602084013e6105d7565b606091505b505090508061063b5760405162461bcd60e51b815260206004820152602a60248201527f556e666f7274756e6174656c7920776520636f756c64206e6f742073656e6420604482015269746f206164647265737360b01b6064820152608401610240565b5050505050565b60008060009054906101000a90046001600160a01b03166001600160a01b0316639d9a7fe96040518163ffffffff1660e01b815260040160206040518083038186803b15801561069157600080fd5b505afa1580156106a5573d6000803e3d6000fd5b505050506040513d601f19601f820116820180604052508101906106c991906107a3565b905080156106e95760405162461bcd60e51b81526004016102409061080f565b47670de0b6b3a764000081106107645760008054906101000a90046001600160a01b03166001600160a01b031663522e1177826040518263ffffffff1660e01b81526004016000604051808303818588803b15801561074757600080fd5b505af115801561075b573d6000803e3d6000fd5b50505050505050565b6003805460ff191660011790555050565b600060208284031215610786578081fd5b81356001600160a01b038116811461079c578182fd5b9392505050565b6000602082840312156107b4578081fd5b8151801515811461079c578182fd5b6020808252602c908201527f446561646c696e652068617320616c72656164792070617373656420796f752760408201526b726520746f6f206c6174652160a01b606082015260800190565b6020808252601d908201527f5374616b696e6720706572696f642068617320636f6d706c6574656421000000604082015260600190565b6000821982111561085957610859610875565b500190565b60008282101561087057610870610875565b500390565b634e487b7160e01b600052601160045260246000fdfea2646970667358221220a579e65459e7bf9a0b93fbe03bc187508a28eb9335db5e35a920ee58e3317bb064736f6c63430008040033",
  "linkReferences": {},
  "deployedLinkReferences": {}
}